{
  "_format": "hh-sol-artifact-1",
  "contractName": "Election",
  "sourceName": "contracts/Election.sol",
  "abi": [
    {
      "inputs": [
        {
          "internalType": "string",
          "name": "_name",
          "type": "string"
        },
        {
          "internalType": "string",
          "name": "_description",
          "type": "string"
        }
      ],
      "stateMutability": "nonpayable",
      "type": "constructor"
    },
    {
      "anonymous": false,
      "inputs": [
        {
          "indexed": true,
          "internalType": "uint256",
          "name": "candidateId",
          "type": "uint256"
        },
        {
          "indexed": false,
          "internalType": "string",
          "name": "name",
          "type": "string"
        },
        {
          "indexed": false,
          "internalType": "string",
          "name": "party",
          "type": "string"
        }
      ],
      "name": "CandidateAdded",
      "type": "event"
    },
    {
      "anonymous": false,
      "inputs": [],
      "name": "ElectionEnded",
      "type": "event"
    },
    {
      "anonymous": false,
      "inputs": [
        {
          "indexed": false,
          "internalType": "uint256",
          "name": "startTime",
          "type": "uint256"
        },
        {
          "indexed": false,
          "internalType": "uint256",
          "name": "endTime",
          "type": "uint256"
        }
      ],
      "name": "ElectionStarted",
      "type": "event"
    },
    {
      "anonymous": false,
      "inputs": [
        {
          "indexed": true,
          "internalType": "address",
          "name": "voter",
          "type": "address"
        },
        {
          "indexed": true,
          "internalType": "uint256",
          "name": "candidateId",
          "type": "uint256"
        }
      ],
      "name": "VoteCast",
      "type": "event"
    },
    {
      "inputs": [
        {
          "internalType": "string",
          "name": "_name",
          "type": "string"
        },
        {
          "internalType": "string",
          "name": "_party",
          "type": "string"
        },
        {
          "internalType": "string",
          "name": "_manifesto",
          "type": "string"
        }
      ],
      "name": "addCandidate",
      "outputs": [],
      "stateMutability": "nonpayable",
      "type": "function"
    },
    {
      "inputs": [],
      "name": "admin",
      "outputs": [
        {
          "internalType": "address",
          "name": "",
          "type": "address"
        }
      ],
      "stateMutability": "view",
      "type": "function"
    },
    {
      "inputs": [
        {
          "internalType": "uint256",
          "name": "",
          "type": "uint256"
        }
      ],
      "name": "candidates",
      "outputs": [
        {
          "internalType": "uint256",
          "name": "id",
          "type": "uint256"
        },
        {
          "internalType": "string",
          "name": "name",
          "type": "string"
        },
        {
          "internalType": "string",
          "name": "party",
          "type": "string"
        },
        {
          "internalType": "string",
          "name": "manifesto",
          "type": "string"
        },
        {
          "internalType": "uint256",
          "name": "voteCount",
          "type": "uint256"
        }
      ],
      "stateMutability": "view",
      "type": "function"
    },
    {
      "inputs": [],
      "name": "candidatesCount",
      "outputs": [
        {
          "internalType": "uint256",
          "name": "",
          "type": "uint256"
        }
      ],
      "stateMutability": "view",
      "type": "function"
    },
    {
      "inputs": [
        {
          "internalType": "address",
          "name": "_voter",
          "type": "address"
        }
      ],
      "name": "checkIfVoted",
      "outputs": [
        {
          "internalType": "bool",
          "name": "",
          "type": "bool"
        }
      ],
      "stateMutability": "view",
      "type": "function"
    },
    {
      "inputs": [],
      "name": "electionInfo",
      "outputs": [
        {
          "internalType": "string",
          "name": "name",
          "type": "string"
        },
        {
          "internalType": "string",
          "name": "description",
          "type": "string"
        },
        {
          "internalType": "uint256",
          "name": "startTime",
          "type": "uint256"
        },
        {
          "internalType": "uint256",
          "name": "endTime",
          "type": "uint256"
        },
        {
          "internalType": "bool",
          "name": "isActive",
          "type": "bool"
        }
      ],
      "stateMutability": "view",
      "type": "function"
    },
    {
      "inputs": [],
      "name": "endElection",
      "outputs": [],
      "stateMutability": "nonpayable",
      "type": "function"
    },
    {
      "inputs": [],
      "name": "getAllCandidates",
      "outputs": [
        {
          "components": [
            {
              "internalType": "uint256",
              "name": "id",
              "type": "uint256"
            },
            {
              "internalType": "string",
              "name": "name",
              "type": "string"
            },
            {
              "internalType": "string",
              "name": "party",
              "type": "string"
            },
            {
              "internalType": "string",
              "name": "manifesto",
              "type": "string"
            },
            {
              "internalType": "uint256",
              "name": "voteCount",
              "type": "uint256"
            }
          ],
          "internalType": "struct Election.Candidate[]",
          "name": "",
          "type": "tuple[]"
        }
      ],
      "stateMutability": "view",
      "type": "function"
    },
    {
      "inputs": [],
      "name": "getCandidateCount",
      "outputs": [
        {
          "internalType": "uint256",
          "name": "",
          "type": "uint256"
        }
      ],
      "stateMutability": "view",
      "type": "function"
    },
    {
      "inputs": [],
      "name": "getElectionStatus",
      "outputs": [
        {
          "internalType": "bool",
          "name": "isActive",
          "type": "bool"
        },
        {
          "internalType": "bool",
          "name": "hasStarted",
          "type": "bool"
        },
        {
          "internalType": "bool",
          "name": "hasEnded",
          "type": "bool"
        },
        {
          "internalType": "uint256",
          "name": "timeRemaining",
          "type": "uint256"
        }
      ],
      "stateMutability": "view",
      "type": "function"
    },
    {
      "inputs": [],
      "name": "getTotalVotes",
      "outputs": [
        {
          "internalType": "uint256",
          "name": "totalVotes",
          "type": "uint256"
        }
      ],
      "stateMutability": "view",
      "type": "function"
    },
    {
      "inputs": [
        {
          "internalType": "address",
          "name": "",
          "type": "address"
        }
      ],
      "name": "hasVoted",
      "outputs": [
        {
          "internalType": "bool",
          "name": "",
          "type": "bool"
        }
      ],
      "stateMutability": "view",
      "type": "function"
    },
    {
      "inputs": [
        {
          "internalType": "uint256",
          "name": "_durationInMinutes",
          "type": "uint256"
        }
      ],
      "name": "startElection",
      "outputs": [],
      "stateMutability": "nonpayable",
      "type": "function"
    },
    {
      "inputs": [
        {
          "internalType": "uint256",
          "name": "_candidateId",
          "type": "uint256"
        }
      ],
      "name": "vote",
      "outputs": [],
      "stateMutability": "nonpayable",
      "type": "function"
    }
  ],
  "bytecode": "0x608060405234801561001057600080fd5b5060405161265338038061265383398181016040528101906100329190610231565b33600860006101000a81548173ffffffffffffffffffffffffffffffffffffffff021916908373ffffffffffffffffffffffffffffffffffffffff1602179055508160008001908161008491906104ca565b50806000600101908161009791906104ca565b5060008060040160006101000a81548160ff021916908315150217905550505061059c565b6000604051905090565b600080fd5b600080fd5b600080fd5b600080fd5b6000601f19601f8301169050919050565b7f4e487b7100000000000000000000000000000000000000000000000000000000600052604160045260246000fd5b610123826100da565b810181811067ffffffffffffffff82111715610142576101416100eb565b5b80604052505050565b60006101556100bc565b9050610161828261011a565b919050565b600067ffffffffffffffff821115610181576101806100eb565b5b61018a826100da565b9050602081019050919050565b60005b838110156101b557808201518184015260208101905061019a565b60008484015250505050565b60006101d46101cf84610166565b61014b565b9050828152602081018484840111156101f0576101ef6100d5565b5b6101fb848285610197565b509392505050565b600082601f830112610218576102176100d0565b5b81516102288482602086016101c1565b91505092915050565b60008060408385031215610248576102476100c6565b5b600083015167ffffffffffffffff811115610266576102656100cb565b5b61027285828601610203565b925050602083015167ffffffffffffffff811115610293576102926100cb565b5b61029f85828601610203565b9150509250929050565b600081519050919050565b7f4e487b7100000000000000000000000000000000000000000000000000000000600052602260045260246000fd5b600060028204905060018216806102fb57607f821691505b60208210810361030e5761030d6102b4565b5b50919050565b60008190508160005260206000209050919050565b60006020601f8301049050919050565b600082821b905092915050565b6000600883026103767fffffffffffffffffffffffffffffffffffffffffffffffffffffffffffffffff82610339565b6103808683610339565b95508019841693508086168417925050509392505050565b6000819050919050565b6000819050919050565b60006103c76103c26103bd84610398565b6103a2565b610398565b9050919050565b6000819050919050565b6103e1836103ac565b6103f56103ed826103ce565b848454610346565b825550505050565b600090565b61040a6103fd565b6104158184846103d8565b505050565b5b818110156104395761042e600082610402565b60018101905061041b565b5050565b601f82111561047e5761044f81610314565b61045884610329565b81016020851015610467578190505b61047b61047385610329565b83018261041a565b50505b505050565b600082821c905092915050565b60006104a160001984600802610483565b1980831691505092915050565b60006104ba8383610490565b9150826002028217905092915050565b6104d3826102a9565b67ffffffffffffffff8111156104ec576104eb6100eb565b5b6104f682546102e3565b61050182828561043d565b600060209050601f8311600181146105345760008415610522578287015190505b61052c85826104ae565b865550610594565b601f19841661054286610314565b60005b8281101561056a57848901518255600182019150602085019450602081019050610545565b868310156105875784890151610583601f891682610490565b8355505b6001600288020188555050505b505050505050565b6120a8806105ab6000396000f3fe608060405234801561001057600080fd5b50600436106100ea5760003560e01c80633477ee2e1161008c5780636d32dc4b116100665780636d32dc4b146102465780639a0e7d6614610262578063ad71f8dc14610280578063f851a4401461029c576100ea565b80633477ee2e146101e657806359f784681461021a5780636c74bf6d14610224576100ea565b80631dfeef7a116100c85780631dfeef7a1461015c5780632d35a8a21461018c5780632e6997fe146101aa57806330a56347146101c8576100ea565b80630121b93f146100ef57806309eef43e1461010b578063122902a61461013b575b600080fd5b610109600480360381019061010491906111bb565b6102ba565b005b61012560048036038101906101209190611246565b610545565b604051610132919061128e565b60405180910390f35b610143610565565b60405161015394939291906112b8565b60405180910390f35b61017660048036038101906101719190611246565b6105c8565b604051610183919061128e565b60405180910390f35b61019461061e565b6040516101a191906112fd565b60405180910390f35b6101b2610624565b6040516101bf91906114fd565b60405180910390f35b6101d06108b4565b6040516101dd91906112fd565b60405180910390f35b61020060048036038101906101fb91906111bb565b6108be565b604051610211959493929190611569565b60405180910390f35b610222610a8c565b005b61022c610c49565b60405161023d9594939291906115d1565b60405180910390f35b610260600480360381019061025b91906111bb565b610d8a565b005b61026a610efc565b60405161027791906112fd565b60405180910390f35b61029a60048036038101906102959190611767565b610f48565b005b6102a461111c565b6040516102b1919061181d565b60405180910390f35b600060040160009054906101000a900460ff1661030c576040517f08c379a000000000000000000000000000000000000000000000000000000000815260040161030390611884565b60405180910390fd5b600060020154421015610354576040517f08c379a000000000000000000000000000000000000000000000000000000000815260040161034b906118f0565b60405180910390fd5b60006003015442111561039c576040517f08c379a00000000000000000000000000000000000000000000000000000000081526004016103939061195c565b60405180910390fd5b600660003373ffffffffffffffffffffffffffffffffffffffff1673ffffffffffffffffffffffffffffffffffffffff16815260200190815260200160002060009054906101000a900460ff1615610429576040517f08c379a0000000000000000000000000000000000000000000000000000000008152600401610420906119c8565b60405180910390fd5b60008111801561043b57506007548111155b61047a576040517f08c379a000000000000000000000000000000000000000000000000000000000815260040161047190611a34565b60405180910390fd5b6001600660003373ffffffffffffffffffffffffffffffffffffffff1673ffffffffffffffffffffffffffffffffffffffff16815260200190815260200160002060006101000a81548160ff0219169083151502179055506005600082815260200190815260200160002060040160008154809291906104f990611a83565b9190505550803373ffffffffffffffffffffffffffffffffffffffff167fa36cc2bebb74db33e9f88110a07ef56e1b31b24b4c4f51b54b1664266e29f45b60405160405180910390a350565b60066020528060005260406000206000915054906101000a900460ff1681565b600080600080600060040160009054906101000a900460ff1693506000600201544210159250600060030154421191508280156105a0575081155b156105bd57426000600301546105b69190611acb565b90506105c2565b600090505b90919293565b6000600660008373ffffffffffffffffffffffffffffffffffffffff1673ffffffffffffffffffffffffffffffffffffffff16815260200190815260200160002060009054906101000a900460ff169050919050565b60075481565b6060600060075467ffffffffffffffff8111156106445761064361163c565b5b60405190808252806020026020018201604052801561067d57816020015b61066a611142565b8152602001906001900390816106625790505b50905060005b6007548110156108ac576005600060018361069e9190611aff565b81526020019081526020016000206040518060a0016040529081600082015481526020016001820180546106d190611b62565b80601f01602080910402602001604051908101604052809291908181526020018280546106fd90611b62565b801561074a5780601f1061071f5761010080835404028352916020019161074a565b820191906000526020600020905b81548152906001019060200180831161072d57829003601f168201915b5050505050815260200160028201805461076390611b62565b80601f016020809104026020016040519081016040528092919081815260200182805461078f90611b62565b80156107dc5780601f106107b1576101008083540402835291602001916107dc565b820191906000526020600020905b8154815290600101906020018083116107bf57829003601f168201915b505050505081526020016003820180546107f590611b62565b80601f016020809104026020016040519081016040528092919081815260200182805461082190611b62565b801561086e5780601f106108435761010080835404028352916020019161086e565b820191906000526020600020905b81548152906001019060200180831161085157829003601f168201915b5050505050815260200160048201548152505082828151811061089457610893611b93565b5b60200260200101819052508080600101915050610683565b508091505090565b6000600754905090565b60056020528060005260406000206000915090508060000154908060010180546108e790611b62565b80601f016020809104026020016040519081016040528092919081815260200182805461091390611b62565b80156109605780601f1061093557610100808354040283529160200191610960565b820191906000526020600020905b81548152906001019060200180831161094357829003601f168201915b50505050509080600201805461097590611b62565b80601f01602080910402602001604051908101604052809291908181526020018280546109a190611b62565b80156109ee5780601f106109c3576101008083540402835291602001916109ee565b820191906000526020600020905b8154815290600101906020018083116109d157829003601f168201915b505050505090806003018054610a0390611b62565b80601f0160208091040260200160405190810160405280929190818152602001828054610a2f90611b62565b8015610a7c5780601f10610a5157610100808354040283529160200191610a7c565b820191906000526020600020905b815481529060010190602001808311610a5f57829003601f168201915b5050505050908060040154905085565b600860009054906101000a900473ffffffffffffffffffffffffffffffffffffffff1673ffffffffffffffffffffffffffffffffffffffff163373ffffffffffffffffffffffffffffffffffffffff1614610b1c576040517f08c379a0000000000000000000000000000000000000000000000000000000008152600401610b1390611c34565b60405180910390fd5b600060040160009054906101000a900460ff16610b6e576040517f08c379a0000000000000000000000000000000000000000000000000000000008152600401610b6590611884565b60405180910390fd5b600060020154421015610bb6576040517f08c379a0000000000000000000000000000000000000000000000000000000008152600401610bad906118f0565b60405180910390fd5b600060030154421115610bfe576040517f08c379a0000000000000000000000000000000000000000000000000000000008152600401610bf59061195c565b60405180910390fd5b60008060040160006101000a81548160ff0219169083151502179055507f66ec723071e4bb646f7b35d31bc2dee8510979bd8c180edd0690d4f5e802f1e460405160405180910390a1565b6000806000018054610c5a90611b62565b80601f0160208091040260200160405190810160405280929190818152602001828054610c8690611b62565b8015610cd35780601f10610ca857610100808354040283529160200191610cd3565b820191906000526020600020905b815481529060010190602001808311610cb657829003601f168201915b505050505090806001018054610ce890611b62565b80601f0160208091040260200160405190810160405280929190818152602001828054610d1490611b62565b8015610d615780601f10610d3657610100808354040283529160200191610d61565b820191906000526020600020905b815481529060010190602001808311610d4457829003601f168201915b5050505050908060020154908060030154908060040160009054906101000a900460ff16905085565b600860009054906101000a900473ffffffffffffffffffffffffffffffffffffffff1673ffffffffffffffffffffffffffffffffffffffff163373ffffffffffffffffffffffffffffffffffffffff1614610e1a576040517f08c379a0000000000000000000000000000000000000000000000000000000008152600401610e1190611c34565b60405180910390fd5b600060040160009054906101000a900460ff1615610e6d576040517f08c379a0000000000000000000000000000000000000000000000000000000008152600401610e6490611ca0565b60405180910390fd5b42600060020181905550603c81610e849190611cc0565b42610e8f9190611aff565b6000600301819055506001600060040160006101000a81548160ff0219169083151502179055507fff6a30dd22f5e8b783044c7d895a6e8592b55c56f139978d44dc39daf596731f600060020154600060030154604051610ef1929190611d02565b60405180910390a150565b600080600190505b6007548111610f4457600560008281526020019081526020016000206004015482610f2f9190611aff565b91508080610f3c90611a83565b915050610f04565b5090565b600860009054906101000a900473ffffffffffffffffffffffffffffffffffffffff1673ffffffffffffffffffffffffffffffffffffffff163373ffffffffffffffffffffffffffffffffffffffff1614610fd8576040517f08c379a0000000000000000000000000000000000000000000000000000000008152600401610fcf90611c34565b60405180910390fd5b600060040160009054906101000a900460ff161561102b576040517f08c379a000000000000000000000000000000000000000000000000000000000815260040161102290611d9d565b60405180910390fd5b6007600081548092919061103e90611a83565b91905055506040518060a00160405280600754815260200184815260200183815260200182815260200160008152506005600060075481526020019081526020016000206000820151816000015560208201518160010190816110a19190611f69565b5060408201518160020190816110b79190611f69565b5060608201518160030190816110cd9190611f69565b50608082015181600401559050506007547fe64f834082661dd9ed89427b87edb6270fd6dad17198b0938f0edd058914c87f848460405161110f92919061203b565b60405180910390a2505050565b600860009054906101000a900473ffffffffffffffffffffffffffffffffffffffff1681565b6040518060a0016040528060008152602001606081526020016060815260200160608152602001600081525090565b6000604051905090565b600080fd5b600080fd5b6000819050919050565b61119881611185565b81146111a357600080fd5b50565b6000813590506111b58161118f565b92915050565b6000602082840312156111d1576111d061117b565b5b60006111df848285016111a6565b91505092915050565b600073ffffffffffffffffffffffffffffffffffffffff82169050919050565b6000611213826111e8565b9050919050565b61122381611208565b811461122e57600080fd5b50565b6000813590506112408161121a565b92915050565b60006020828403121561125c5761125b61117b565b5b600061126a84828501611231565b91505092915050565b60008115159050919050565b61128881611273565b82525050565b60006020820190506112a3600083018461127f565b92915050565b6112b281611185565b82525050565b60006080820190506112cd600083018761127f565b6112da602083018661127f565b6112e7604083018561127f565b6112f460608301846112a9565b95945050505050565b600060208201905061131260008301846112a9565b92915050565b600081519050919050565b600082825260208201905092915050565b6000819050602082019050919050565b61134d81611185565b82525050565b600081519050919050565b600082825260208201905092915050565b60005b8381101561138d578082015181840152602081019050611372565b60008484015250505050565b6000601f19601f8301169050919050565b60006113b582611353565b6113bf818561135e565b93506113cf81856020860161136f565b6113d881611399565b840191505092915050565b600060a0830160008301516113fb6000860182611344565b506020830151848203602086015261141382826113aa565b9150506040830151848203604086015261142d82826113aa565b9150506060830151848203606086015261144782826113aa565b915050608083015161145c6080860182611344565b508091505092915050565b600061147383836113e3565b905092915050565b6000602082019050919050565b600061149382611318565b61149d8185611323565b9350836020820285016114af85611334565b8060005b858110156114eb57848403895281516114cc8582611467565b94506114d78361147b565b925060208a019950506001810190506114b3565b50829750879550505050505092915050565b600060208201905081810360008301526115178184611488565b905092915050565b600082825260208201905092915050565b600061153b82611353565b611545818561151f565b935061155581856020860161136f565b61155e81611399565b840191505092915050565b600060a08201905061157e60008301886112a9565b81810360208301526115908187611530565b905081810360408301526115a48186611530565b905081810360608301526115b88185611530565b90506115c760808301846112a9565b9695505050505050565b600060a08201905081810360008301526115eb8188611530565b905081810360208301526115ff8187611530565b905061160e60408301866112a9565b61161b60608301856112a9565b611628608083018461127f565b9695505050505050565b600080fd5b600080fd5b7f4e487b7100000000000000000000000000000000000000000000000000000000600052604160045260246000fd5b61167482611399565b810181811067ffffffffffffffff821117156116935761169261163c565b5b80604052505050565b60006116a6611171565b90506116b2828261166b565b919050565b600067ffffffffffffffff8211156116d2576116d161163c565b5b6116db82611399565b9050602081019050919050565b82818337600083830152505050565b600061170a611705846116b7565b61169c565b90508281526020810184848401111561172657611725611637565b5b6117318482856116e8565b509392505050565b600082601f83011261174e5761174d611632565b5b813561175e8482602086016116f7565b91505092915050565b6000806000606084860312156117805761177f61117b565b5b600084013567ffffffffffffffff81111561179e5761179d611180565b5b6117aa86828701611739565b935050602084013567ffffffffffffffff8111156117cb576117ca611180565b5b6117d786828701611739565b925050604084013567ffffffffffffffff8111156117f8576117f7611180565b5b61180486828701611739565b9150509250925092565b61181781611208565b82525050565b6000602082019050611832600083018461180e565b92915050565b7f456c656374696f6e206973206e6f742061637469766500000000000000000000600082015250565b600061186e60168361151f565b915061187982611838565b602082019050919050565b6000602082019050818103600083015261189d81611861565b9050919050565b7f456c656374696f6e20686173206e6f7420737461727465642079657400000000600082015250565b60006118da601c8361151f565b91506118e5826118a4565b602082019050919050565b60006020820190508181036000830152611909816118cd565b9050919050565b7f456c656374696f6e2068617320656e6465640000000000000000000000000000600082015250565b600061194660128361151f565b915061195182611910565b602082019050919050565b6000602082019050818103600083015261197581611939565b9050919050565b7f596f75206861766520616c726561647920766f74656400000000000000000000600082015250565b60006119b260168361151f565b91506119bd8261197c565b602082019050919050565b600060208201905081810360008301526119e1816119a5565b9050919050565b7f496e76616c69642063616e646964617465204944000000000000000000000000600082015250565b6000611a1e60148361151f565b9150611a29826119e8565b602082019050919050565b60006020820190508181036000830152611a4d81611a11565b9050919050565b7f4e487b7100000000000000000000000000000000000000000000000000000000600052601160045260246000fd5b6000611a8e82611185565b91507fffffffffffffffffffffffffffffffffffffffffffffffffffffffffffffffff8203611ac057611abf611a54565b5b600182019050919050565b6000611ad682611185565b9150611ae183611185565b9250828203905081811115611af957611af8611a54565b5b92915050565b6000611b0a82611185565b9150611b1583611185565b9250828201905080821115611b2d57611b2c611a54565b5b92915050565b7f4e487b7100000000000000000000000000000000000000000000000000000000600052602260045260246000fd5b60006002820490506001821680611b7a57607f821691505b602082108103611b8d57611b8c611b33565b5b50919050565b7f4e487b7100000000000000000000000000000000000000000000000000000000600052603260045260246000fd5b7f4f6e6c792061646d696e2063616e20706572666f726d2074686973206163746960008201527f6f6e000000000000000000000000000000000000000000000000000000000000602082015250565b6000611c1e60228361151f565b9150611c2982611bc2565b604082019050919050565b60006020820190508181036000830152611c4d81611c11565b9050919050565b7f456c656374696f6e20616c726561647920616374697665000000000000000000600082015250565b6000611c8a60178361151f565b9150611c9582611c54565b602082019050919050565b60006020820190508181036000830152611cb981611c7d565b9050919050565b6000611ccb82611185565b9150611cd683611185565b9250828202611ce481611185565b91508282048414831517611cfb57611cfa611a54565b5b5092915050565b6000604082019050611d1760008301856112a9565b611d2460208301846112a9565b9392505050565b7f43616e6e6f74206164642063616e6469646174657320647572696e6720616e2060008201527f61637469766520656c656374696f6e0000000000000000000000000000000000602082015250565b6000611d87602f8361151f565b9150611d9282611d2b565b604082019050919050565b60006020820190508181036000830152611db681611d7a565b9050919050565b60008190508160005260206000209050919050565b60006020601f8301049050919050565b600082821b905092915050565b600060088302611e1f7fffffffffffffffffffffffffffffffffffffffffffffffffffffffffffffffff82611de2565b611e298683611de2565b95508019841693508086168417925050509392505050565b6000819050919050565b6000611e66611e61611e5c84611185565b611e41565b611185565b9050919050565b6000819050919050565b611e8083611e4b565b611e94611e8c82611e6d565b848454611def565b825550505050565b600090565b611ea9611e9c565b611eb4818484611e77565b505050565b5b81811015611ed857611ecd600082611ea1565b600181019050611eba565b5050565b601f821115611f1d57611eee81611dbd565b611ef784611dd2565b81016020851015611f06578190505b611f1a611f1285611dd2565b830182611eb9565b50505b505050565b600082821c905092915050565b6000611f4060001984600802611f22565b1980831691505092915050565b6000611f598383611f2f565b9150826002028217905092915050565b611f7282611353565b67ffffffffffffffff811115611f8b57611f8a61163c565b5b611f958254611b62565b611fa0828285611edc565b600060209050601f831160018114611fd35760008415611fc1578287015190505b611fcb8582611f4d565b865550612033565b601f198416611fe186611dbd565b60005b8281101561200957848901518255600182019150602085019450602081019050611fe4565b868310156120265784890151612022601f891682611f2f565b8355505b6001600288020188555050505b505050505050565b600060408201905081810360008301526120558185611530565b905081810360208301526120698184611530565b9050939250505056fea26469706673582212202ba9c88b765012b143bcb18fb1009d0a6274b82e232d2be879b10e518c32e79364736f6c634300081c0033",
  "linkReferences": {},
  "deployedLinkReferences": {}
}