{
  "_format": "hh-sol-artifact-1",
  "contractName": "Voting",
  "sourceName": "contracts/Lock.sol",
  "abi": [
    {
      "inputs": [],
      "stateMutability": "nonpayable",
      "type": "constructor"
    },
    {
      "anonymous": false,
      "inputs": [
        {
          "indexed": true,
          "internalType": "uint256",
          "name": "id",
          "type": "uint256"
        },
        {
          "indexed": false,
          "internalType": "string",
          "name": "name",
          "type": "string"
        },
        {
          "indexed": false,
          "internalType": "string",
          "name": "party",
          "type": "string"
        }
      ],
      "name": "CandidateAdded",
      "type": "event"
    },
    {
      "anonymous": false,
      "inputs": [
        {
          "indexed": true,
          "internalType": "address",
          "name": "voter",
          "type": "address"
        },
        {
          "indexed": true,
          "internalType": "uint256",
          "name": "candidateId",
          "type": "uint256"
        }
      ],
      "name": "Voted",
      "type": "event"
    },
    {
      "inputs": [
        {
          "internalType": "string",
          "name": "_name",
          "type": "string"
        },
        {
          "internalType": "string",
          "name": "_party",
          "type": "string"
        },
        {
          "internalType": "string",
          "name": "_manifesto",
          "type": "string"
        }
      ],
      "name": "addCandidate",
      "outputs": [],
      "stateMutability": "nonpayable",
      "type": "function"
    },
    {
      "inputs": [],
      "name": "admin",
      "outputs": [
        {
          "internalType": "address",
          "name": "",
          "type": "address"
        }
      ],
      "stateMutability": "view",
      "type": "function"
    },
    {
      "inputs": [],
      "name": "candidateCount",
      "outputs": [
        {
          "internalType": "uint256",
          "name": "",
          "type": "uint256"
        }
      ],
      "stateMutability": "view",
      "type": "function"
    },
    {
      "inputs": [
        {
          "internalType": "uint256",
          "name": "",
          "type": "uint256"
        }
      ],
      "name": "candidates",
      "outputs": [
        {
          "internalType": "uint256",
          "name": "id",
          "type": "uint256"
        },
        {
          "internalType": "string",
          "name": "name",
          "type": "string"
        },
        {
          "internalType": "string",
          "name": "party",
          "type": "string"
        },
        {
          "internalType": "string",
          "name": "manifesto",
          "type": "string"
        },
        {
          "internalType": "uint256",
          "name": "voteCount",
          "type": "uint256"
        }
      ],
      "stateMutability": "view",
      "type": "function"
    },
    {
      "inputs": [
        {
          "internalType": "address",
          "name": "_user",
          "type": "address"
        }
      ],
      "name": "checkIfVoted",
      "outputs": [
        {
          "internalType": "bool",
          "name": "",
          "type": "bool"
        }
      ],
      "stateMutability": "view",
      "type": "function"
    },
    {
      "inputs": [],
      "name": "getAllCandidates",
      "outputs": [
        {
          "components": [
            {
              "internalType": "uint256",
              "name": "id",
              "type": "uint256"
            },
            {
              "internalType": "string",
              "name": "name",
              "type": "string"
            },
            {
              "internalType": "string",
              "name": "party",
              "type": "string"
            },
            {
              "internalType": "string",
              "name": "manifesto",
              "type": "string"
            },
            {
              "internalType": "uint256",
              "name": "voteCount",
              "type": "uint256"
            }
          ],
          "internalType": "struct Voting.Candidate[]",
          "name": "",
          "type": "tuple[]"
        }
      ],
      "stateMutability": "view",
      "type": "function"
    },
    {
      "inputs": [
        {
          "internalType": "uint256",
          "name": "_candidateId",
          "type": "uint256"
        }
      ],
      "name": "getCandidate",
      "outputs": [
        {
          "internalType": "uint256",
          "name": "id",
          "type": "uint256"
        },
        {
          "internalType": "string",
          "name": "name",
          "type": "string"
        },
        {
          "internalType": "string",
          "name": "party",
          "type": "string"
        },
        {
          "internalType": "string",
          "name": "manifesto",
          "type": "string"
        },
        {
          "internalType": "uint256",
          "name": "voteCount",
          "type": "uint256"
        }
      ],
      "stateMutability": "view",
      "type": "function"
    },
    {
      "inputs": [],
      "name": "getCandidateCount",
      "outputs": [
        {
          "internalType": "uint256",
          "name": "",
          "type": "uint256"
        }
      ],
      "stateMutability": "view",
      "type": "function"
    },
    {
      "inputs": [
        {
          "internalType": "address",
          "name": "",
          "type": "address"
        }
      ],
      "name": "hasVoted",
      "outputs": [
        {
          "internalType": "bool",
          "name": "",
          "type": "bool"
        }
      ],
      "stateMutability": "view",
      "type": "function"
    },
    {
      "inputs": [
        {
          "internalType": "uint256",
          "name": "_candidateId",
          "type": "uint256"
        }
      ],
      "name": "vote",
      "outputs": [],
      "stateMutability": "nonpayable",
      "type": "function"
    }
  ],
  "bytecode": "0x6080604052348015600f57600080fd5b50336000806101000a81548173ffffffffffffffffffffffffffffffffffffffff021916908373ffffffffffffffffffffffffffffffffffffffff1602179055506118a18061005f6000396000f3fe608060405234801561001057600080fd5b506004361061009e5760003560e01c80633477ee2e116100665780633477ee2e1461015b57806335b8e8201461018f578063a9a981a3146101c3578063ad71f8dc146101e1578063f851a440146101fd5761009e565b80630121b93f146100a357806309eef43e146100bf5780631dfeef7a146100ef5780632e6997fe1461011f57806330a563471461013d575b600080fd5b6100bd60048036038101906100b89190610d3b565b61021b565b005b6100d960048036038101906100d49190610dc6565b6103c6565b6040516100e69190610e0e565b60405180910390f35b61010960048036038101906101049190610dc6565b6103e6565b6040516101169190610e0e565b60405180910390f35b61012761043c565b604051610134919061100e565b60405180910390f35b6101456106cc565b604051610152919061103f565b60405180910390f35b61017560048036038101906101709190610d3b565b6106d6565b6040516101869594939291906110a4565b60405180910390f35b6101a960048036038101906101a49190610d3b565b6108a4565b6040516101ba9594939291906110a4565b60405180910390f35b6101cb610b19565b6040516101d8919061103f565b60405180910390f35b6101fb60048036038101906101f69190611241565b610b1f565b005b610205610c9e565b60405161021291906112f7565b60405180910390f35b8060008111801561022e57506001548111155b61026d576040517f08c379a00000000000000000000000000000000000000000000000000000000081526004016102649061135e565b60405180910390fd5b600360003373ffffffffffffffffffffffffffffffffffffffff1673ffffffffffffffffffffffffffffffffffffffff16815260200190815260200160002060009054906101000a900460ff16156102fa576040517f08c379a00000000000000000000000000000000000000000000000000000000081526004016102f1906113ca565b60405180910390fd5b60026000838152602001908152602001600020600401600081548092919061032190611419565b91905055506001600360003373ffffffffffffffffffffffffffffffffffffffff1673ffffffffffffffffffffffffffffffffffffffff16815260200190815260200160002060006101000a81548160ff021916908315150217905550813373ffffffffffffffffffffffffffffffffffffffff167f4d99b957a2bc29a30ebd96a7be8e68fe50a3c701db28a91436490b7d53870ca460405160405180910390a35050565b60036020528060005260406000206000915054906101000a900460ff1681565b6000600360008373ffffffffffffffffffffffffffffffffffffffff1673ffffffffffffffffffffffffffffffffffffffff16815260200190815260200160002060009054906101000a900460ff169050919050565b6060600060015467ffffffffffffffff81111561045c5761045b611116565b5b60405190808252806020026020018201604052801561049557816020015b610482610cc2565b81526020019060019003908161047a5790505b50905060005b6001548110156106c457600260006001836104b69190611461565b81526020019081526020016000206040518060a0016040529081600082015481526020016001820180546104e9906114c4565b80601f0160208091040260200160405190810160405280929190818152602001828054610515906114c4565b80156105625780601f1061053757610100808354040283529160200191610562565b820191906000526020600020905b81548152906001019060200180831161054557829003601f168201915b5050505050815260200160028201805461057b906114c4565b80601f01602080910402602001604051908101604052809291908181526020018280546105a7906114c4565b80156105f45780601f106105c9576101008083540402835291602001916105f4565b820191906000526020600020905b8154815290600101906020018083116105d757829003601f168201915b5050505050815260200160038201805461060d906114c4565b80601f0160208091040260200160405190810160405280929190818152602001828054610639906114c4565b80156106865780601f1061065b57610100808354040283529160200191610686565b820191906000526020600020905b81548152906001019060200180831161066957829003601f168201915b505050505081526020016004820154815250508282815181106106ac576106ab6114f5565b5b6020026020010181905250808060010191505061049b565b508091505090565b6000600154905090565b60026020528060005260406000206000915090508060000154908060010180546106ff906114c4565b80601f016020809104026020016040519081016040528092919081815260200182805461072b906114c4565b80156107785780601f1061074d57610100808354040283529160200191610778565b820191906000526020600020905b81548152906001019060200180831161075b57829003601f168201915b50505050509080600201805461078d906114c4565b80601f01602080910402602001604051908101604052809291908181526020018280546107b9906114c4565b80156108065780601f106107db57610100808354040283529160200191610806565b820191906000526020600020905b8154815290600101906020018083116107e957829003601f168201915b50505050509080600301805461081b906114c4565b80601f0160208091040260200160405190810160405280929190818152602001828054610847906114c4565b80156108945780601f1061086957610100808354040283529160200191610894565b820191906000526020600020905b81548152906001019060200180831161087757829003601f168201915b5050505050908060040154905085565b600060608060606000856000811180156108c057506001548111155b6108ff576040517f08c379a00000000000000000000000000000000000000000000000000000000081526004016108f69061135e565b60405180910390fd5b6000600260008981526020019081526020016000206040518060a001604052908160008201548152602001600182018054610939906114c4565b80601f0160208091040260200160405190810160405280929190818152602001828054610965906114c4565b80156109b25780601f10610987576101008083540402835291602001916109b2565b820191906000526020600020905b81548152906001019060200180831161099557829003601f168201915b505050505081526020016002820180546109cb906114c4565b80601f01602080910402602001604051908101604052809291908181526020018280546109f7906114c4565b8015610a445780601f10610a1957610100808354040283529160200191610a44565b820191906000526020600020905b815481529060010190602001808311610a2757829003601f168201915b50505050508152602001600382018054610a5d906114c4565b80601f0160208091040260200160405190810160405280929190818152602001828054610a89906114c4565b8015610ad65780601f10610aab57610100808354040283529160200191610ad6565b820191906000526020600020905b815481529060010190602001808311610ab957829003601f168201915b5050505050815260200160048201548152505090508060000151816020015182604001518360600151846080015196509650965096509650505091939590929450565b60015481565b60008054906101000a900473ffffffffffffffffffffffffffffffffffffffff1673ffffffffffffffffffffffffffffffffffffffff163373ffffffffffffffffffffffffffffffffffffffff1614610bad576040517f08c379a0000000000000000000000000000000000000000000000000000000008152600401610ba490611596565b60405180910390fd5b60016000815480929190610bc090611419565b91905055506040518060a0016040528060015481526020018481526020018381526020018281526020016000815250600260006001548152602001908152602001600020600082015181600001556020820151816001019081610c239190611762565b506040820151816002019081610c399190611762565b506060820151816003019081610c4f9190611762565b50608082015181600401559050506001547fe64f834082661dd9ed89427b87edb6270fd6dad17198b0938f0edd058914c87f8484604051610c91929190611834565b60405180910390a2505050565b60008054906101000a900473ffffffffffffffffffffffffffffffffffffffff1681565b6040518060a0016040528060008152602001606081526020016060815260200160608152602001600081525090565b6000604051905090565b600080fd5b600080fd5b6000819050919050565b610d1881610d05565b8114610d2357600080fd5b50565b600081359050610d3581610d0f565b92915050565b600060208284031215610d5157610d50610cfb565b5b6000610d5f84828501610d26565b91505092915050565b600073ffffffffffffffffffffffffffffffffffffffff82169050919050565b6000610d9382610d68565b9050919050565b610da381610d88565b8114610dae57600080fd5b50565b600081359050610dc081610d9a565b92915050565b600060208284031215610ddc57610ddb610cfb565b5b6000610dea84828501610db1565b91505092915050565b60008115159050919050565b610e0881610df3565b82525050565b6000602082019050610e236000830184610dff565b92915050565b600081519050919050565b600082825260208201905092915050565b6000819050602082019050919050565b610e5e81610d05565b82525050565b600081519050919050565b600082825260208201905092915050565b60005b83811015610e9e578082015181840152602081019050610e83565b60008484015250505050565b6000601f19601f8301169050919050565b6000610ec682610e64565b610ed08185610e6f565b9350610ee0818560208601610e80565b610ee981610eaa565b840191505092915050565b600060a083016000830151610f0c6000860182610e55565b5060208301518482036020860152610f248282610ebb565b91505060408301518482036040860152610f3e8282610ebb565b91505060608301518482036060860152610f588282610ebb565b9150506080830151610f6d6080860182610e55565b508091505092915050565b6000610f848383610ef4565b905092915050565b6000602082019050919050565b6000610fa482610e29565b610fae8185610e34565b935083602082028501610fc085610e45565b8060005b85811015610ffc5784840389528151610fdd8582610f78565b9450610fe883610f8c565b925060208a01995050600181019050610fc4565b50829750879550505050505092915050565b600060208201905081810360008301526110288184610f99565b905092915050565b61103981610d05565b82525050565b60006020820190506110546000830184611030565b92915050565b600082825260208201905092915050565b600061107682610e64565b611080818561105a565b9350611090818560208601610e80565b61109981610eaa565b840191505092915050565b600060a0820190506110b96000830188611030565b81810360208301526110cb818761106b565b905081810360408301526110df818661106b565b905081810360608301526110f3818561106b565b90506111026080830184611030565b9695505050505050565b600080fd5b600080fd5b7f4e487b7100000000000000000000000000000000000000000000000000000000600052604160045260246000fd5b61114e82610eaa565b810181811067ffffffffffffffff8211171561116d5761116c611116565b5b80604052505050565b6000611180610cf1565b905061118c8282611145565b919050565b600067ffffffffffffffff8211156111ac576111ab611116565b5b6111b582610eaa565b9050602081019050919050565b82818337600083830152505050565b60006111e46111df84611191565b611176565b905082815260208101848484011115611200576111ff611111565b5b61120b8482856111c2565b509392505050565b600082601f8301126112285761122761110c565b5b81356112388482602086016111d1565b91505092915050565b60008060006060848603121561125a57611259610cfb565b5b600084013567ffffffffffffffff81111561127857611277610d00565b5b61128486828701611213565b935050602084013567ffffffffffffffff8111156112a5576112a4610d00565b5b6112b186828701611213565b925050604084013567ffffffffffffffff8111156112d2576112d1610d00565b5b6112de86828701611213565b9150509250925092565b6112f181610d88565b82525050565b600060208201905061130c60008301846112e8565b92915050565b7f496e76616c69642063616e646964617465204944000000000000000000000000600082015250565b600061134860148361105a565b915061135382611312565b602082019050919050565b600060208201905081810360008301526113778161133b565b9050919050565b7f596f75206861766520616c726561647920766f74656400000000000000000000600082015250565b60006113b460168361105a565b91506113bf8261137e565b602082019050919050565b600060208201905081810360008301526113e3816113a7565b9050919050565b7f4e487b7100000000000000000000000000000000000000000000000000000000600052601160045260246000fd5b600061142482610d05565b91507fffffffffffffffffffffffffffffffffffffffffffffffffffffffffffffffff8203611456576114556113ea565b5b600182019050919050565b600061146c82610d05565b915061147783610d05565b925082820190508082111561148f5761148e6113ea565b5b92915050565b7f4e487b7100000000000000000000000000000000000000000000000000000000600052602260045260246000fd5b600060028204905060018216806114dc57607f821691505b6020821081036114ef576114ee611495565b5b50919050565b7f4e487b7100000000000000000000000000000000000000000000000000000000600052603260045260246000fd5b7f4f6e6c792061646d696e2063616e20706572666f726d2074686973206163746960008201527f6f6e000000000000000000000000000000000000000000000000000000000000602082015250565b600061158060228361105a565b915061158b82611524565b604082019050919050565b600060208201905081810360008301526115af81611573565b9050919050565b60008190508160005260206000209050919050565b60006020601f8301049050919050565b600082821b905092915050565b6000600883026116187fffffffffffffffffffffffffffffffffffffffffffffffffffffffffffffffff826115db565b61162286836115db565b95508019841693508086168417925050509392505050565b6000819050919050565b600061165f61165a61165584610d05565b61163a565b610d05565b9050919050565b6000819050919050565b61167983611644565b61168d61168582611666565b8484546115e8565b825550505050565b600090565b6116a2611695565b6116ad818484611670565b505050565b5b818110156116d1576116c660008261169a565b6001810190506116b3565b5050565b601f821115611716576116e7816115b6565b6116f0846115cb565b810160208510156116ff578190505b61171361170b856115cb565b8301826116b2565b50505b505050565b600082821c905092915050565b60006117396000198460080261171b565b1980831691505092915050565b60006117528383611728565b9150826002028217905092915050565b61176b82610e64565b67ffffffffffffffff81111561178457611783611116565b5b61178e82546114c4565b6117998282856116d5565b600060209050601f8311600181146117cc57600084156117ba578287015190505b6117c48582611746565b86555061182c565b601f1984166117da866115b6565b60005b82811015611802578489015182556001820191506020850194506020810190506117dd565b8683101561181f578489015161181b601f891682611728565b8355505b6001600288020188555050505b505050505050565b6000604082019050818103600083015261184e818561106b565b90508181036020830152611862818461106b565b9050939250505056fea2646970667358221220870eaf15b76c50c6f1ccd28dbd69b622d99a7788d0a47577e56061effd4002dc64736f6c634300081c0033",
  "linkReferences": {},
  "deployedLinkReferences": {}
}